:4000000000800020110000009D0200009D02000080B500AF024A034B1B68136000F042F9BC760040FA4600400800022300000876080003230000107608000423000030760C
:40004000050005230000207005000623000030700500FE23000070706000082200001051100009220000C0511000FE220000F05180090B220000000080000C220000000AD9
:4000800080040D220000800B80010E220000001480050F22000000160004102200000040800011220000004580001222000000478000132200000049800014220000004C08
:4000C000800015220000004D2000FE2200000050800017230000800A800018230000804D800019230000804C80001A230000804780001B230000004680001C23000080460B
:4001000080001D230000804580001E230000004480001F2300008044800020230000801B80002123000080158000222300008009800023230000000B800024230000804949
:4001400080002523000000488000FE2300008048010000000100000001000000004801400100000000200140010000000020004010B5054C237833B9044B13B10448AFF319
:4001800000800123237010BD2881FF1F00000000A41C0000084B10B51BB108480849AFF300800848036803B910BD074B002BFBD0BDE81040184700BF00000000A41C0000AE
:4001C0002C81FF1F0881FF1F0000000080B500AF62B600F0DDFE00F0FDFC00F0C7FB01F08BF90A4800F012FB094A094B1B78DBB243F00503DBB213700020012100F01AFD0C
:4002000000F01CF800F0DCFEFEE700BF15020000B4C7004080B582B000AF002000F0EAFC78607B681B0AFB70FB78803BDBB2184600F0F0FB0837BD4680BD00BF80B582B08A
:4002400000AF022001214FF480424FF4804300F02BFB0346FB7101F0E7FB0346BB71BA79BB79104602211A46002301F00BFCBB79184644F610614CF2A07201F043FCFA79E2
:40028000BB791046194601F061FBFB791846012101F0A8FA0837BD4680BD00BF80B400AFFEE700BF80B586B000AF224B7B61224B3B61204B7B6135E03B691B68FB603B69CE
:4002C0005B68BB603B699B683B6000237B600CE0FB681A68BB681A60BB680433BB60FB680433FB607B6804337B607A683B689A42EED13B69DB683B6000237B6008E0BB6868
:4003000000221A60BB680433BB607B6804337B607A683B689A42F2D13B6910333B617B69013B7B617B69002BC6D101F081FCFFF74DFFFEE701000000A023000080B582B0AE
:4003400000AF184B184A1A60184A184B1B6843F40073136000237B600FE07B68032B04D8134A7B6852F8233000E0124B12497A6841F822307B6801337B607B682F2BECD97A
:400380000E4B1B78DAB20E4B1A700E4B0A4A1A6000F0CEF901F0F8F90B4B00221A600837BD4680BD0CED00E00004FA0514ED00E0000000009D0200000080FF1FBC76004045
:4003C0000481FF1F08ED00E00081FF1F80B582B000AF78603960786800213A6801F059FC0837BD4680BD00BF80B584B000AFF860B9607A60F868B9687A6801F03FFC1037FF
:40040000BD4680BD80B483B000AF0346FB71FEE780B483B000AF3D4B00221A603C4B10221A703C4B01221A703B4B00221A703B4B4FF494721A803A4B01221A70394B0322A5
:400440001A70394B394A92B21A80394B47F608021A80384B00221A80374B4FF480421A80364B07221A70364B0A221A70354B16221A70BFF35F8F344B01221A70BFF35F8F2F
:4004800000BF264B1B889BB2002BFAD100237B600DE07B68DA002D4B134419462C4A7B6852F823309BB20B807B6801337B607B68242BEED9BFF35F8F234B01221A70BFF32A
:4004C0005F8F00BF234B1B78DBB203F00103002BF8D100BF204B1B78DBB203F00103002BF8D100BF1D4B1B78DBB203F00103002BF8D100BF1A4B1B78DBB203F00103002B09
:40050000F8D10C37BD465DF8047B70474881FF1F007600401070004019700040007800400278004003780040047800402800000006780040047600400676004029700040DD
:400540003970004079700040147000400C780040A81C00001870004028700040387000407870004080B582B000AF3B4B00221A803A4B50221A703A483A490422FFF734FF40
:40058000394B02221A704FF0402308221A70374B03221A70364B374A1278D2B21A70364B08221A80354B41F251221A800023FB7019237B6013E0FB785B00DAB2304B1B78E3
:4005C000DBB203F00103DBB21343DBB203F00303FB70782001F0C8F87B68013B7B607B68002B02D0FB78032BE5D17B68002B02D10320FFF707FF234B4FF480721A80214B80
:4006000007221A70204B00221A70204B48221A701C4B00221A701E4B02221A701D4B04221A701D4A1C4B1B78DBB243F00103DBB213701A4A194B1B78DBB243F00103DBB26E
:400640001370174A164B1B78DBB263F07F03DBB213700837BD4680BD804000408240004000410040080800480043004000420040A146004008010049224200402042004012
:4006800025420040044000400640004008400040014000400B400040A2430040A1430040A043004080B483B000AF164B1B78FB71154AFB7903F00703DBB21370134AFB7962
:4006C0001B09DBB21370124B4FF4C0721A80114B0C221A70104B01221A70104B20221A700F4B01221A700F4B10221A700E4B20221A700E4B44221A700C37BD465DF8047B72
:40070000704700BFCF0100496E5800406F5800400C5100406C580040835A0040905A0040925A0040005B0040045B00407658004080B500AF72B6284B01221A70FFF712FF8E
:40074000254B81221A70254A244B1B78DBB243F00403DBB21370FFF75BFE214B0A221A7020480421FFF732FE1F4A1F4B1B78DBB243F00203DBB213701C4A1C4B1B78DBB248
:4007800043F00203DBB21370194A194B1B78DBB243F04003DBB21370164A164B1B78DBB243F01003DBB21370134814490822FFF71BFE134A124B1B78DBB243F00803DBB2B7
:4007C0001370104B01221A70FFF76CFF0E4808490E22FFF709FE80BD00480040E846004083580040507600400350014013500140A0430040C2430040025100400008004862
:400800002243004004000840B043004080B582B000AF786000F03CF8786800F009F8072000F018F800F028F80837BD4680BD00BF80B485B000AF7860054B1B68FB60FB68BB
:40084000B0337A681A601437BD465DF8047B704708ED00E080B483B000AF0346FB71054AFB795B01DBB213700C37BD465DF8047B704700BF1CE400E080B400AF034B4FF0B1
:4008800080521A60BD465DF8047B704700E100E080B400AF034B4FF080521A60BD465DF8047B704780E100E090B585B002AF0446084611461A462346FB710346BB710B46FD
:4008C000BB8013467B80114B0A221A700F4B1878F979BA790023009300230193002301F053F80A4B1978BA887B88084611461A4600F0EEFF054B1B781846022100F0B8FFE4
:40090000024B1B7818460C37BD4690BD0C81FF1F80B500AF064B00221A70064B00221A70042000F057F8002000F034F880BD00BF205800402158004080B400AF094A094BC7
:400940001B78DBB243F00103DBB21370064A064B1B78DBB243F00103DBB21370BD465DF8047B7047A8430040B843004080B500AF074B1B78002B04D1FFF7CAFF044B01221A
:400980001A70FFF7D9FF642000F044F880BD00BF5081FF1F80B483B000AF0346FB710C4A0B4B1B78DBB223F00203DBB213700849074B1B78DAB2FB7903F00203DBB2134374
:4009C000DBB20B700C37BD465DF8047B704700BF2058004080B582B000AF0346FB710C4A0B4B1B78DBB223F00C03DBB213700849074B1B78DAB2FB7903F00C03DBB21343C3
:400A0000DBB20B7000F016F80837BD4680BD00BF2058004080B483B000AF0346FB71044AFB7913700C37BD465DF8047B704700BF805B004080B483B000AF0B4B1B78DBB273
:400A400003F00C039B08DBB20633FB71074AFB7903F1924303F590731B78DBB213700C37BD465DF8047B70472058004008460040F8B500AF354A354B1B78DBB243F010039B
:400A8000DBB21370324A324B1B78DBB223F00103DBB213702F4B3F221A702F4B3F221A702E4A2F4B11461A464FF48073084611461A4601F0E3F82B4A294B11461A464FF489
:400AC0008073084611461A4601F0D8F8264A274B11461A464FF48073084611461A4601F0CDF8234A234B11461A464FF40073084611461A4601F0C2F81F4A204B11461A4630
:400B00004FF40073084611461A4601F0B7F81C4B1C4A14461E4604F1400E35462346186859689A68DB680FC5103410367445F4D1094B00221A70012000F0C8F8002000F065
:400B4000D9F8114BF8221A70F8BD00BFA643004080C7004088C700408CC7004000C400403C1D000000C5004000C600407C22000000C000403C1E000000C200403C200000A0
:400B800000C700403C22000084C7004080B400AF0D4A0D4B1B78DBB243F01003DBB213700A4A0A4B1B78DBB243F01003DBB21370074A074B1B78DBB243F00103DBB2137014
:400BC000BD465DF8047B7047A6430040B643004080C7004080B500AF054B1B78002B04D1FFF746FF024B01221A70FFF7CFFF80BD5181FF1F80B485B000AF0346FB71FB7950
:400C0000002B03D1094B1B68FB6008E0FB79012B03D1074B1B68FB6001E00023FB60FB6818461437BD465DF8047B7047A8C70040ACC7004080B483B000AF03460A46FB7181
:400C40001346BB71FB79002B1AD11F4A1E4B1B78DBB223F03303DBB213701B491A4B1B78DAB2BB791343DBB20B701749164B1B78DAB2BB791B01DBB21343DBB20B701EE087
:400C8000FB79012B1BD1104A0F4B1B78DBB203F03303DBB213700C490B4B1B78DAB2BB799B00DBB21343DBB20B700749064B1B78DAB2BB799B01DBB21343DBB20B700C3759
:400CC000BD465DF8047B7047B0C7004080B483B000AF0346FB71FB7903F01F03FB71044AFB7913700C37BD465DF8047B704700BF98C7004080B483B000AF0346FB71FB793C
:400D000003F00F03FB71044AFB7913700C37BD465DF8047B704700BF9CC7004080B582B002AF324B01221A70314B00221A70102000F0B8FB102000F0EDFC1D20072100F02F
:400D400055FF2C4B04221A702B4B00221A702B4B00221A702A4A2A4B1B78DBB243F01803DBB21370274B00221A70274B00221A70264B00221A70264B0A221A70254B00223B
:400D80001A70254B00221A70244B5B221A70244B5E221A70234B00221A70234B14221A7001230093052049F25B114FF40042102300F0C4F91D4A0D4B1B78DBB2013B1C49EE
:400DC0009B000B449B7813701A4A084B1B78DBB2013B174931F823301380044B1B78DBB2184600F0FDF8BD4680BD00BF0D81FF1F5481FF1F96580040975800409E5800400E
:400E0000075B004093580040885B0040895B004080580040815800408358004088580040895800408D580040014E00400E4E00405881FF1F0C4E004080B582B000AF00F02A
:400E40009BFC0346FB71444B1B78BB71434A434B1B78DBB243F00103DBB213703F4A3F4B1B78DBB243F01003DBB213703C4A3C4B1B78DBB243F00103DBB21370384A384B54
:400E80001B78DBB243F01003DBB21370354A354B1B78DBB243F00203DBB21370324A324B1B78DBB243F00203DBB213702F4A2F4B1B78DBB243F00303DBB21370032000F085
:400EC0005BFE284A274B1B78DBB223F00203DBB21370254A244B1B78DBB223F00203DBB21370234A224B1B78DBB243F00603DBB21370204B7A221A701F4A1F4B1B78DBB27D
:400F000043F00103DBB213701C4A1C4B1B78DBB243F00103DBB21370194A194B1B78DBB243F00103DBB21370164A164B1B78DBB243F00103DBB21370134B4FF000521A6077
:400F4000124B4FF000521A60FB79184600F018FC0837BD4680BD00BF0D81FF1FAA430040BA430040F8460040F9460040915800407758004082580040A1430040B143004038
:400F8000A2430040B243004080E200E000E100E080B500AF084B1B78002B09D1074B1B78DBB2002B01D1FFF7B9FE034B01221A70FFF742FF80BD00BF5681FF1F5781FF1FD0
:400FC00080B400AF054A054B1B78DBB243F00103DBB21370BD465DF8047B7047004E004080B582B000AF0346FB71364B00221A70FB79012B63D1344B38221A70334B042219
:401000001A70334B07221A70324B00221A70324B00221A70314B3F221A70314B00221A70304B00221A70304B00221A702F4B01221A702F4B50221A702E4B13221A702E4B78
:401040002B221A702D4B00221A702D4B44221A702C4B48221A702C4B02221A702B4B02221A702B4B12221A702A4B28221A702A4BEB221A70442000F017F9284B58221A70F5
:40108000274B00221A70274B05221A70264B01221A70264B00221A70254B0A221A70254B4FF47A521A600120012100F03FF90720012100F073FA1D201F4900F06FFD083744
:4010C000BD4680BD5581FF1F004E0040024E0040034E0040044E0040054E0040064E0040084E0040094E00400A4E0040144E00408458004085580040865800408758004077
:401100008A5800408B5800408C5800408E5800408F580040905800409158004094580040955800409A5800409B5800409C5800409D5800405C81FF1F2113000090B587B0D6
:4011400000AF0446084611461A462346FB710346BB800B467B801346BB7197F82830002B00F08A8097F82830012B00F28580FB79013B092B4AD801A252F823F0A511000075
:401180000D1200000D120000A51100000D1200000D120000BF110000D91100000D120000F3110000BB790F2B04D9364B1B78DBB2FB752EE0344B1B78DBB2FB7529E0BB796A
:4011C0000F2B04D9314B1B78DBB2FB7521E0304B1B78DBB2FB751CE0BB790F2B04D92D4B1B78DBB2FB7514E02B4B1B78DBB2FB750FE0BB790F2B04D9284B1B78DBB2FB753A
:4012000007E0274B1B78DBB2FB7502E00023FB7500BFBA8897F917305B0113443B617B883A6902FB03F3FB60FB68DB0BBB82BB790D2B11D8BB8ABA79C2F10E021341BB828E
:4012400097F82830013BBA790132D1B2154A9B0013440A469A7007E097F82830013B114A9B0013440F229A7097F82830013B0D49BA8A21F8232002E0002000F071FC1C375A
:40128000BD4690BD180100491C010049190100491D0100491A0100491E0100491B0100491F0100495881FF1F80B584B000AF0346FB7100F061FA0346FB73164A154B1B7899
:4012C000DBB243F00303DBB21370134A124B1B78DBB243F00303DBB21370104AFB791370032000F049FC0B4A0A4B1B78DBB223F00303DBB21370084A074B1B78DBB223F082
:401300000303DBB21370FB7B184600F039FA1037BD4680BDF8460040F94600409258004080B400AFBD465DF8047B704780B584B000AF03460A46FB8013467B7100F0CCF85C
:401340000346FB7300F0A2F80346BB81FA88BB899A4200F08780454B1B78DBB203F00103FB72FB7B002B20D1BB89002B02D0FB88002B1AD1BB89002B0BD13D4AFB881380A6
:401380003C4A3C4B1B78DBB223F04003DBB2137068E0384A374B1B78DBB243F04003DBB21370334AFB8813805CE0FB7A002B33D0314B00221A70314B01221A70304B002248
:4013C0001A70304A2F4B1B78DBB203F07F03DBB21370284B1B78DBB203F00803002B02D0FB88002B18D1284ABB891380224B07221A7000BF204B1B78DBB203F00103002BD0
:40140000F8D11A4A194B1B78DBB223F00103DBB21370194B00221A70144B1B78DBB203F00103002B13D0184AFB881380124A7B79002B01D0032300E00123137000BF0E4BB7
:401440001B78DBB203F00103002BF8D10AE0084AFB8813800549054B1B78DAB2FB7A1343DBB20B701037BD4680BD00BFA24300408040004082400040014000401040004001
:4014800014400040084000400240004080B400AF034B1B889BB21846BD465DF8047B70478040004080B483B000AF0346FB71094B084A1278D2B2D1B2FA7922F00702D2B26D
:4014C0000A43D2B2D2B21A700C37BD465DF8047B704700BF8240004080B400AF054B1B78DBB203F00703DBB21846BD465DF8047B704700BF8240004080B500AF00F042F8E3
:40150000044800F00FF8072000F01EF800F02EF880BD00BF1915000080B400AFBD465DF8047B704780B485B000AF7860054B1B68FB60FB68B4337A681A601437BD465DF823
:40154000047B704708ED00E080B483B000AF0346FB71054AFB795B01DBB213700C37BD465DF8047B704700BF1DE400E080B400AF034B4FF000521A60BD465DF8047B70472B
:4015800000E100E080B400AF034B4FF000521A60BD465DF8047B704780E100E080B584B000AF03460A46FB8013467B7100F0CCF80346FB7300F0A2F80346BB81FA88BB89AE
:4015C0009A4200F08780454B1B78DBB203F00103FB72FB7B002B20D1BB89002B02D0FB88002B1AD1BB89002B0BD13D4AFB8813803C4A3C4B1B78DBB223F04003DBB213701D
:4016000068E0384A374B1B78DBB243F04003DBB21370334AFB8813805CE0FB7A002B33D0314B00221A70314B01221A70304B00221A70304A2F4B1B78DBB203F07F03DBB2B8
:401640001370284B1B78DBB203F00803002B02D0FB88002B18D1284ABB891380224B07221A7000BF204B1B78DBB203F00103002BF8D11A4A194B1B78DBB223F00103DBB298
:401680001370194B00221A70144B1B78DBB203F00103002B13D0184AFB881380124A7B79002B01D0032300E00123137000BF0E4B1B78DBB203F00103002BF8D10AE0084A43
:4016C000FB8813800549054B1B78DAB2FB7A1343DBB20B701037BD4680BD00BFA14300400041004002410040014000401440004010400040084000400240004080B400AF44
:40170000034B1B889BB21846BD465DF8047B70470041004080B483B000AF0346FB71094B084A1278D2B2D1B2FA7922F00702D2B20A43D2B2D2B21A700C37BD465DF8047BF1
:40174000704700BF0241004080B400AF054B1B78DBB203F00703DBB21846BD465DF8047B704700BF024100400230800803D000BF01380046FCD17047EFF3108072B67047C5
:4017800080F31088704700BF80B483B000AF134B7F221A70124B80221A707F23FB710CE0FB79DB0003F1804303F5F043FA79013AD2B21A70FB79013BFB71FB79002BEFD11E
:4017C000FB79DB0003F1804303F5F04300221A700C37BD465DF8047B704700BF1181FF1F1081FF1F80B485B000AF03460A46FB711346BB710123FB60FB79172B2FD8BB790B
:40180000002B0ED0FB791A01184B1344FA791101164A0A441278D2B242F02002D2B21A700DE0FB791A01114B1344FA7911010F4A0A441278D2B222F02002D2B21A70FB7994
:401840001A010A4B1344FA791101084A0A441278D2B242F00102D2B21A700023FB60FB6818461437BD465DF8047B70471070004080B485B000AF03460A46FB711346BB71B1
:401880000123FB60FB79172B18D8FB791A010F4B13441B78DBB223F00E03FB72FB791A010A4B1344BA7902F00702D2B25200D1B2FA7A0A43D2B21A700023FB60FB68184642
:4018C0001437BD465DF8047B704700BF1070004080B485B000AF0346FB710B46BB8013467B800123FB60BB8841F6FF72934202D14FF40053BB807B8841F6FF72934202D1AD
:401900004FF400537B80FB79172B17D8FB79DB0003F1804303F5EC430433BB60BB68BA881A80FB79DB0003F1804303F5EC430633BB60BB687A881A800023FB60FB68184674
:401940001437BD465DF8047B704700BF80B485B000AF03460A46FB711346BB710123FB60FB79172B07D8FB791A01064B1344BA795A720023FB60FB6818461437BD465DF801
:40198000047B70471070004090B484B000AF0446084611461A462346FB710346BB710B467B7113463B710123FB60FB79172B34D8FB79DB0003F1804303F5EC43BA7902F09C
:4019C0007F02D1B27A79D201D2B20A43D2B21A70FB79DB0003F1804303F5EC433A7E1201D1B23A7902F00F02D2B20A43D2B25A70FB79DB0003F1804303F5EC433A7F02F016
:401A00000F02D2B29A70FB79DB0003F1804303F5EC430022DA700023FB60FB6818461037BD4690BC704700BF80B582B000AFFF23FB71FFF7A1FE0346BB71104B1B78182B44
:401A400012D90F4B1B78FB710C4B1B78013BDAB20A4B1A70FB79DB0003F1804303F5F0431B78DAB2064B1A70BB791846FFF788FEFB7918460837BD4680BD00BF1081FF1F99
:401A80001181FF1F90B484B000AF0446084611461A462346FB710346BB800B46BB711346FB700123FB60FB795BB2002B23DBBB8823F47F6323F00F039BB2002B1BD1FB7904
:401AC000DB0003F1804303F5F043BB60BB68BA881A80FB79DB0003F1804303F5F043BA799A70FB79DB0003F1804303F5F043FA78DA700023FB60FB6818461037BD4690BCDF
:401B0000704700BF80B485B000AF0346FB710B46BB8013467B800123FB60FB795BB2002B17DBFB79DB0003F1804303F5F0430433BB60BB68BA881A80FB79DB0003F18043DD
:401B400003F5F0430633BB60BB687A881A800023FB60FB6818461437BD465DF8047B704780B483B000AF0346FB7101BE0C37BD465DF8047B704700BF80B582B000AF034696
:401B8000FB80FB88044A127802FB03F31846FFF7EBFD0837BD4680BD2081FF1F80B584B000AF03463960FB710F4B1B68FB60FB791F2B02D90020FFF7D3FFFB7903F01F033A
:401BC00010339B00FA6813441B68BB60FB7903F01F0310339B00FA6813443A681A60BB6818461037BD4680BD08ED00E080B582B000AF03460A46FB711346BB71BB79072B91
:401C000002D90020FFF7ACFFFB791F2B02D90020FFF7A6FFFB7903F01F0303F1604303F56443BA795201D2B21A700837BD4680BD0E4B70B51E460E4C0025E41AA410A542E8
:401C400004D056F8253098470135F8E700F096FB084B094C1E46E41AA4100025A54204D056F8253098470135F8E770BD8823000088230000882300009023000010B5431E3C
:401C80000A44914204D011F8014B03F8014FF8E710BD03460244934202D003F8011BFAE77047000000000000680100006001000058010000500100005001000050010000E8
:401CC0004881FF1F4881FF1F4881FF1F4881FF1F4881FF1F4881FF1F4881FF1F4881FF1F4881FF1F4881FF1F4881FF1F4881FF1F4881FF1F4881FF1F4881FF1F0000004813
:401D000080000048000100488001004800020048800200480003004880030048000400488004004800050048800500480006004880060048000700488007004820130025DB
:401D40006117802601008026E00E8026C20C8026020080066587186D6409183E00008026032080262102187F000000000000000000000000000000000000000000000000B1
:401D80000000000000000000000000000000000000000000000000000000000000000000000000000000000000000000000000000000000000000000000000000000000023
:401DC00000000000000000000000000000000000000000000000000000000000000000000000000000000000000000000000000000000000000000000000000000000000E3
:401E000000000000000000000000000000000000000000000000000000000000000000000000000000000000000000000000000000000000000000000000000000000000A2
:401E40000000000000000000000000000000000000000000000000000000000000000000000000000000000000000000000000000000000000000000000000000000000062
:401E80000000000000000000000000000000000000000000000000000000000000000000000000000000000000000000000000000000000000000000000000000000000022
:401EC00000000000000000000000000000000000000000000000000000000000000000000000000000000000000000000000000000000000000000000000000000000000E2
:401F000000000000000000000000000000000000000000000000000000000000000000000000000000000000000000000000000000000000000000000000000000000000A1
:401F40000000000000000000000000000000000000000000000000000000000000000000000000000000000000000000000000000000000000000000000000000000000061
:401F80000000000000000000000000000000000000000000000000000000000000000000000000000000000000000000000000000000000000000000000000000000000021
:401FC00000000000000000000000000000000000000000000000000000000000000000000000000000000000000000000000000000000000000000000000000000000000E1
:402000000000000000000000000000000000000000000000000000000000000000000000000000000000000000000000000000000000000000000000000000005A01000045
:402040002901000000000000CDFDFF00A4FBFF00BDFBFF0000000000AD0700002D0E0000E40C00000000000085EBFF001BDCFF00D7E0FF0000000000CB2D0000A74D000032
:402080006941000000000000C1A4FF00C068FF003383FF0000000000FAA700004312010051DF00000000000088D9FE008722FE00E87CFE0000000000CDFE0100894103000E
:4020C000B0AB020000000000564FFC005FBBF900998CFA0000000000E66909002D31140012BF1C00FEFF1F0012BF1C002D311400E669090000000000998CFA005FBBF900F4
:40210000564FFC0000000000B0AB020089410300CDFE010000000000E87CFE008722FE0088D9FE000000000051DF000043120100FAA70000000000003383FF00C068FF009D
:40214000C1A4FF000000000069410000A74D0000CB2D000000000000D7E0FF001BDCFF0085EBFF0000000000E40C00002D0E0000AD07000000000000BDFBFF00A4FBFF0016
:40218000CDFDFF0000000000290100005A010000000000000000000000000000000000000000000000000000000000000000000000000000000000000000000000000000D1
:4021C00000000000000000000000000000000000000000000000000000000000000000000000000000000000000000000000000000000000000000000000000000000000DF
:40220000000000000000000000000000000000000000000000000000000000000000000000000000000000000000000000000000000000000000000000000000542A000020
:4022400000000000000000000000000000000000000000000000000000000000000000000000000000000000000000000000000000000000000000000000000021F805013F
:402280004210864064F8150181F8050143518E21000000000000000000000000000000000000000000000000000000000000000000000000000000000000000000000000D2
:4022C00000000000000000000000000000000000000000000000000000000000000000000000000000000000000000000000000000000000000000000000000000000000DE
:40230000000000000000000000000000000000000000000000000000000000000000000000000000000000000000000000000000000000000000000000000000000000009D
:40234000000000000000000000000000000000000000000000000000000000000000000000000000000000000000000000000000000000000000000000000000F8B500BFF1
:40238000F8BC08BC9E467047950100003D030000F8B500BFF8BC08BC9E46704771010000B02300000881FF1F200000004000000000000000FF010000807F00000004000066
:4023C00000366E01C05D0000180000000000E02E000000000000000000000000000000000000000000000000000000000000000000000000000000000000000000000000F5
:40240000000000000000000000000000000000000000000000000000000000000000000000000000000000000000000000000000000000000000000000000000000000009C
:40244000000000000000000000000000000000000000000000000000000000000000000000000000000000000000000000000000000000000000000000000000000000005C
:40248000000000000000000000000000000000000000000000000000000000000000000000000000000000000000000000000000000000000000000000000000000000001C
:4024C00000000000000000000000000000000000000000000000000000000000000000000000000000000000000000000000000000000000000000000000000000000000DC
:020000040003F7
:0200000480007A
:4000000000000000000000000000000000000000000000000000000000000000000000000000000000000000000000000000000000000000000000000200000000000100BD
:40004000000000000000000000000000000000000000000000000000040000000000000100000000000000000000000000000000000000000000000000000000000000007B
:400080000000000000000000000000000000000000000000000000000000000000000000000000000000000000000000000000000000000000080000000000000000000038
:4000C00000000000000000000000000000000000000000000000000000000000000000000000000000000000000000000800000000000000000000000000000000000000F8
:4001000000000000000000000000000000000000000000000000000000000000000000000000000000080000000000000000000000000000000000000000000000000000B7
:40014000000000000000000000000000000000000000000000000000000000000000000000000000000000000000000000000000000000000000000000000000000000007F
:400180000000000000000000000000000000000000000000000000000000000000000000000000000008000000000000000000000000000001000000000000000000000036
:4001C00000000000000000000000000000000000000000000000000000000000000000000000000000000000000000000800000000000000000000000000000000000000F7
:4002000000000000000000000000000000000000000000000000000000000000000000000000000000000000000000000000000000000000000000000000000000000000BE
:400240000000000000080000000000000000000000000000000000000000000000000000000000000000000000000000000000000000000000000000000000000000000076
:40028000000000000000000000000000000000000000000001000000000000000000000000000000000000000000000000000000000000000000000000000000000000003D
:4002C00000000000000000000000000000000000010000000000000000000000000000000000000000000000000000000000000000000000000000000000000000000000FD
:4003000000000000000000000000000000000000000000000100000000000000000000000000000000000000000000000000000000000000000000000000000000000000BC
:40034000000000000000000000000000000000000000000000000000000000000000000000000000000000000000000000000000000000000000000000000000000000007D
:40038000000000000000000000000000000000000000000000000000000000000000000000000000000000000000000000000000000000000000000000000000000000003D
:4003C00000000000000000000000000000000000000000000000000000000000000000000000000000000000000000000000000000000000000000000000000001000000FC
:4004000000000000000000000000000000000000000000000000000000000000000000000000000000000000000000000000000000000000000000000000000000000000BC
:40044000000000000000000000000000000000000000000000000000000000000000010000000000000000000000000000000000000000000000000000000000000000007B
:40048000000000000000000000000000000000000000000000000000000000000000000000000000000000000000000000000000000000000000000000000000000000003C
:4004C00000000000000000000000000000000000000000000000000000000000000000000000000000000000000000001000000000000000000000000000000000000000EC
:4005000000000000000000000000000000000000000000000000000000000000000000000000000000000000000000000000000000000000000000000000000000000000BB
:40054000000000000000000000000000000000000000000000000000000000000000000000000000000000000000000010000000000000000000000000000000000000006B
:400580000000000000000000000000000000000000000000000000000000000000000000000000000000000000000000000000000000000000020000000000000000000039
:4005C00000000000000000000000000000000000000000000000000000000000000000000000000000000000000000000000000000000000000000000000000000000000FB
:4006000000000000000000000000000000000000000000000000000000000000000200000000000000000000000000000000000000000000000000000000000000000000B8
:40064000000000000000000000000000000000000000000000000000000000000000000000000000000000000000000000000000000000000000000000000000000000007A
:40068000000000000000000000000000000000000000000000000000000000000000000000000000000000000000000000000000000000000010000000000000000000002A
:4006C00000000000000000000000000000000000000000000000000000000000000000000000000000000000000000000000000000000000000000000000000000000000FA
:4007000000000000000000000000000000000000000000000000000000000000000000000000000000100000000000000000000000000000000000000000000000000000A9
:400740000000000000000000000000000000000000000000000000000000000000000000000000000000000000000000000000000000000000000000000000000000000079
:400780000000000000000000000000000000000000000000000000000000000000000000000000000000000000000000000000000000000000000000000000000000000039
:4007C00000000000000000002000000000000000000000000000000000000000000000000000000000000000000000000000000000000000000000000000000000000000D9
:400800000000000000008100070018010000000000000000000000000000000000000000000000000000000000000000000000000000000000000000000000000000000017
:400840000000000000000000000000000000000000000000000000000000000000000000000000000000000000000000000000000000000000000000000000000000000078
:400880000000000000000000000000000000000000000000000000000000000000000000000000000000000000000000000000000000000000000000000000000000000038
:4008C00000000000000000000000000000000000000000000000000000000000000000000000000000000000000000000000000000000000000000000000000000000000F8
:4009000000000000000000000000000000000000000000000000000000000000000000000000000000000000000000000000000000000000000000000000000000000000B7
:0200000490006A
:0400000000004004B8
:0200000490105A
:04000000BC90ACAF55
:0200000490303A
:020000000DDA17
:0200000490402A
:4000000000000000000000000000000000000000000000000000000000000000000000000000000000000000000000000000000000000000000000000000000000000000C0
:400040000000000000000000000000000000000000000000000000000000000000000000000000000000000000000000000000000000000000000000000000000000000080
:400080000000000000000000000000000000000000000000000000000000000000000000000000000000000000000000000000000000000000000000000000000000000040
:4000C0000000000000000000000000000000000000000000000000000000000000000000000000000000000000000000000000000000000000000000000000000000000000
:0200000490501A
:0C00000000012E12306900012E1D3E434D
:00000001FF